{
  "_format": "hh-sol-artifact-1",
  "contractName": "VndStablecoin",
  "sourceName": "contracts/VndStablecoin.sol",
  "abi": [
    {
      "inputs": [],
      "stateMutability": "nonpayable",
      "type": "constructor"
    },
    {
      "inputs": [],
      "name": "AccessControlBadConfirmation",
      "type": "error"
    },
    {
      "inputs": [
        {
          "internalType": "address",
          "name": "account",
          "type": "address"
        },
        {
          "internalType": "bytes32",
          "name": "neededRole",
          "type": "bytes32"
        }
      ],
      "name": "AccessControlUnauthorizedAccount",
      "type": "error"
    },
    {
      "inputs": [
        {
          "internalType": "address",
          "name": "spender",
          "type": "address"
        },
        {
          "internalType": "uint256",
          "name": "allowance",
          "type": "uint256"
        },
        {
          "internalType": "uint256",
          "name": "needed",
          "type": "uint256"
        }
      ],
      "name": "ERC20InsufficientAllowance",
      "type": "error"
    },
    {
      "inputs": [
        {
          "internalType": "address",
          "name": "sender",
          "type": "address"
        },
        {
          "internalType": "uint256",
          "name": "balance",
          "type": "uint256"
        },
        {
          "internalType": "uint256",
          "name": "needed",
          "type": "uint256"
        }
      ],
      "name": "ERC20InsufficientBalance",
      "type": "error"
    },
    {
      "inputs": [
        {
          "internalType": "address",
          "name": "approver",
          "type": "address"
        }
      ],
      "name": "ERC20InvalidApprover",
      "type": "error"
    },
    {
      "inputs": [
        {
          "internalType": "address",
          "name": "receiver",
          "type": "address"
        }
      ],
      "name": "ERC20InvalidReceiver",
      "type": "error"
    },
    {
      "inputs": [
        {
          "internalType": "address",
          "name": "sender",
          "type": "address"
        }
      ],
      "name": "ERC20InvalidSender",
      "type": "error"
    },
    {
      "inputs": [
        {
          "internalType": "address",
          "name": "spender",
          "type": "address"
        }
      ],
      "name": "ERC20InvalidSpender",
      "type": "error"
    },
    {
      "inputs": [],
      "name": "EnforcedPause",
      "type": "error"
    },
    {
      "inputs": [],
      "name": "ExpectedPause",
      "type": "error"
    },
    {
      "anonymous": false,
      "inputs": [
        {
          "indexed": true,
          "internalType": "address",
          "name": "owner",
          "type": "address"
        },
        {
          "indexed": true,
          "internalType": "address",
          "name": "spender",
          "type": "address"
        },
        {
          "indexed": false,
          "internalType": "uint256",
          "name": "value",
          "type": "uint256"
        }
      ],
      "name": "Approval",
      "type": "event"
    },
    {
      "anonymous": false,
      "inputs": [
        {
          "indexed": true,
          "internalType": "address",
          "name": "account",
          "type": "address"
        }
      ],
      "name": "Blacklisted",
      "type": "event"
    },
    {
      "anonymous": false,
      "inputs": [
        {
          "indexed": true,
          "internalType": "address",
          "name": "from",
          "type": "address"
        },
        {
          "indexed": false,
          "internalType": "uint256",
          "name": "amount",
          "type": "uint256"
        }
      ],
      "name": "Burn",
      "type": "event"
    },
    {
      "anonymous": false,
      "inputs": [
        {
          "indexed": true,
          "internalType": "address",
          "name": "to",
          "type": "address"
        },
        {
          "indexed": false,
          "internalType": "uint256",
          "name": "amount",
          "type": "uint256"
        }
      ],
      "name": "Mint",
      "type": "event"
    },
    {
      "anonymous": false,
      "inputs": [
        {
          "indexed": false,
          "internalType": "address",
          "name": "account",
          "type": "address"
        }
      ],
      "name": "Paused",
      "type": "event"
    },
    {
      "anonymous": false,
      "inputs": [
        {
          "indexed": true,
          "internalType": "bytes32",
          "name": "role",
          "type": "bytes32"
        },
        {
          "indexed": true,
          "internalType": "bytes32",
          "name": "previousAdminRole",
          "type": "bytes32"
        },
        {
          "indexed": true,
          "internalType": "bytes32",
          "name": "newAdminRole",
          "type": "bytes32"
        }
      ],
      "name": "RoleAdminChanged",
      "type": "event"
    },
    {
      "anonymous": false,
      "inputs": [
        {
          "indexed": true,
          "internalType": "bytes32",
          "name": "role",
          "type": "bytes32"
        },
        {
          "indexed": true,
          "internalType": "address",
          "name": "account",
          "type": "address"
        },
        {
          "indexed": true,
          "internalType": "address",
          "name": "sender",
          "type": "address"
        }
      ],
      "name": "RoleGranted",
      "type": "event"
    },
    {
      "anonymous": false,
      "inputs": [
        {
          "indexed": true,
          "internalType": "bytes32",
          "name": "role",
          "type": "bytes32"
        },
        {
          "indexed": true,
          "internalType": "address",
          "name": "account",
          "type": "address"
        },
        {
          "indexed": true,
          "internalType": "address",
          "name": "sender",
          "type": "address"
        }
      ],
      "name": "RoleRevoked",
      "type": "event"
    },
    {
      "anonymous": false,
      "inputs": [
        {
          "indexed": true,
          "internalType": "address",
          "name": "from",
          "type": "address"
        },
        {
          "indexed": true,
          "internalType": "address",
          "name": "to",
          "type": "address"
        },
        {
          "indexed": false,
          "internalType": "uint256",
          "name": "value",
          "type": "uint256"
        }
      ],
      "name": "Transfer",
      "type": "event"
    },
    {
      "anonymous": false,
      "inputs": [
        {
          "indexed": true,
          "internalType": "address",
          "name": "account",
          "type": "address"
        }
      ],
      "name": "UnBlacklisted",
      "type": "event"
    },
    {
      "anonymous": false,
      "inputs": [
        {
          "indexed": false,
          "internalType": "address",
          "name": "account",
          "type": "address"
        }
      ],
      "name": "Unpaused",
      "type": "event"
    },
    {
      "inputs": [],
      "name": "BURNER_ROLE",
      "outputs": [
        {
          "internalType": "bytes32",
          "name": "",
          "type": "bytes32"
        }
      ],
      "stateMutability": "view",
      "type": "function"
    },
    {
      "inputs": [],
      "name": "DEFAULT_ADMIN_ROLE",
      "outputs": [
        {
          "internalType": "bytes32",
          "name": "",
          "type": "bytes32"
        }
      ],
      "stateMutability": "view",
      "type": "function"
    },
    {
      "inputs": [],
      "name": "MINTER_ROLE",
      "outputs": [
        {
          "internalType": "bytes32",
          "name": "",
          "type": "bytes32"
        }
      ],
      "stateMutability": "view",
      "type": "function"
    },
    {
      "inputs": [],
      "name": "PAUSER_ROLE",
      "outputs": [
        {
          "internalType": "bytes32",
          "name": "",
          "type": "bytes32"
        }
      ],
      "stateMutability": "view",
      "type": "function"
    },
    {
      "inputs": [
        {
          "internalType": "address",
          "name": "owner",
          "type": "address"
        },
        {
          "internalType": "address",
          "name": "spender",
          "type": "address"
        }
      ],
      "name": "allowance",
      "outputs": [
        {
          "internalType": "uint256",
          "name": "",
          "type": "uint256"
        }
      ],
      "stateMutability": "view",
      "type": "function"
    },
    {
      "inputs": [
        {
          "internalType": "address",
          "name": "spender",
          "type": "address"
        },
        {
          "internalType": "uint256",
          "name": "value",
          "type": "uint256"
        }
      ],
      "name": "approve",
      "outputs": [
        {
          "internalType": "bool",
          "name": "",
          "type": "bool"
        }
      ],
      "stateMutability": "nonpayable",
      "type": "function"
    },
    {
      "inputs": [
        {
          "internalType": "address",
          "name": "account",
          "type": "address"
        }
      ],
      "name": "balanceOf",
      "outputs": [
        {
          "internalType": "uint256",
          "name": "",
          "type": "uint256"
        }
      ],
      "stateMutability": "view",
      "type": "function"
    },
    {
      "inputs": [
        {
          "internalType": "address",
          "name": "account",
          "type": "address"
        }
      ],
      "name": "blacklist",
      "outputs": [],
      "stateMutability": "nonpayable",
      "type": "function"
    },
    {
      "inputs": [
        {
          "internalType": "address",
          "name": "",
          "type": "address"
        }
      ],
      "name": "blacklisted",
      "outputs": [
        {
          "internalType": "bool",
          "name": "",
          "type": "bool"
        }
      ],
      "stateMutability": "view",
      "type": "function"
    },
    {
      "inputs": [
        {
          "internalType": "address",
          "name": "from",
          "type": "address"
        },
        {
          "internalType": "uint256",
          "name": "amount",
          "type": "uint256"
        }
      ],
      "name": "burn",
      "outputs": [],
      "stateMutability": "nonpayable",
      "type": "function"
    },
    {
      "inputs": [],
      "name": "decimals",
      "outputs": [
        {
          "internalType": "uint8",
          "name": "",
          "type": "uint8"
        }
      ],
      "stateMutability": "view",
      "type": "function"
    },
    {
      "inputs": [
        {
          "internalType": "bytes32",
          "name": "role",
          "type": "bytes32"
        }
      ],
      "name": "getRoleAdmin",
      "outputs": [
        {
          "internalType": "bytes32",
          "name": "",
          "type": "bytes32"
        }
      ],
      "stateMutability": "view",
      "type": "function"
    },
    {
      "inputs": [
        {
          "internalType": "bytes32",
          "name": "role",
          "type": "bytes32"
        },
        {
          "internalType": "address",
          "name": "account",
          "type": "address"
        }
      ],
      "name": "grantRole",
      "outputs": [],
      "stateMutability": "nonpayable",
      "type": "function"
    },
    {
      "inputs": [
        {
          "internalType": "bytes32",
          "name": "role",
          "type": "bytes32"
        },
        {
          "internalType": "address",
          "name": "account",
          "type": "address"
        }
      ],
      "name": "hasRole",
      "outputs": [
        {
          "internalType": "bool",
          "name": "",
          "type": "bool"
        }
      ],
      "stateMutability": "view",
      "type": "function"
    },
    {
      "inputs": [
        {
          "internalType": "address",
          "name": "to",
          "type": "address"
        },
        {
          "internalType": "uint256",
          "name": "amount",
          "type": "uint256"
        }
      ],
      "name": "mint",
      "outputs": [],
      "stateMutability": "nonpayable",
      "type": "function"
    },
    {
      "inputs": [],
      "name": "name",
      "outputs": [
        {
          "internalType": "string",
          "name": "",
          "type": "string"
        }
      ],
      "stateMutability": "view",
      "type": "function"
    },
    {
      "inputs": [],
      "name": "pause",
      "outputs": [],
      "stateMutability": "nonpayable",
      "type": "function"
    },
    {
      "inputs": [],
      "name": "paused",
      "outputs": [
        {
          "internalType": "bool",
          "name": "",
          "type": "bool"
        }
      ],
      "stateMutability": "view",
      "type": "function"
    },
    {
      "inputs": [
        {
          "internalType": "address",
          "name": "account",
          "type": "address"
        }
      ],
      "name": "removeBlacklist",
      "outputs": [],
      "stateMutability": "nonpayable",
      "type": "function"
    },
    {
      "inputs": [
        {
          "internalType": "bytes32",
          "name": "role",
          "type": "bytes32"
        },
        {
          "internalType": "address",
          "name": "callerConfirmation",
          "type": "address"
        }
      ],
      "name": "renounceRole",
      "outputs": [],
      "stateMutability": "nonpayable",
      "type": "function"
    },
    {
      "inputs": [
        {
          "internalType": "bytes32",
          "name": "role",
          "type": "bytes32"
        },
        {
          "internalType": "address",
          "name": "account",
          "type": "address"
        }
      ],
      "name": "revokeRole",
      "outputs": [],
      "stateMutability": "nonpayable",
      "type": "function"
    },
    {
      "inputs": [
        {
          "internalType": "bytes4",
          "name": "interfaceId",
          "type": "bytes4"
        }
      ],
      "name": "supportsInterface",
      "outputs": [
        {
          "internalType": "bool",
          "name": "",
          "type": "bool"
        }
      ],
      "stateMutability": "view",
      "type": "function"
    },
    {
      "inputs": [],
      "name": "symbol",
      "outputs": [
        {
          "internalType": "string",
          "name": "",
          "type": "string"
        }
      ],
      "stateMutability": "view",
      "type": "function"
    },
    {
      "inputs": [],
      "name": "totalSupply",
      "outputs": [
        {
          "internalType": "uint256",
          "name": "",
          "type": "uint256"
        }
      ],
      "stateMutability": "view",
      "type": "function"
    },
    {
      "inputs": [
        {
          "internalType": "address",
          "name": "to",
          "type": "address"
        },
        {
          "internalType": "uint256",
          "name": "value",
          "type": "uint256"
        }
      ],
      "name": "transfer",
      "outputs": [
        {
          "internalType": "bool",
          "name": "",
          "type": "bool"
        }
      ],
      "stateMutability": "nonpayable",
      "type": "function"
    },
    {
      "inputs": [
        {
          "internalType": "address",
          "name": "from",
          "type": "address"
        },
        {
          "internalType": "address",
          "name": "to",
          "type": "address"
        },
        {
          "internalType": "uint256",
          "name": "value",
          "type": "uint256"
        }
      ],
      "name": "transferFrom",
      "outputs": [
        {
          "internalType": "bool",
          "name": "",
          "type": "bool"
        }
      ],
      "stateMutability": "nonpayable",
      "type": "function"
    },
    {
      "inputs": [],
      "name": "unpause",
      "outputs": [],
      "stateMutability": "nonpayable",
      "type": "function"
    }
  ],
  "bytecode": "0x60806040523480156200001157600080fd5b506040518060400160405280600e81526020017f564e4420537461626c65636f696e0000000000000000000000000000000000008152506040518060400160405280600381526020017f564e44000000000000000000000000000000000000000000000000000000000081525081600390816200008f91906200054a565b508060049081620000a191906200054a565b505050620000b96000801b336200015960201b60201c565b50620000ec7f9f2df0fed2c77648de5860a4cc508cd0818c85b8b8a1ab4ceeef8d981c8956a6336200015960201b60201c565b506200011f7f3c11d16cbaffd01df69ce1c404f6340ee057498f5f00246190ea54220576a848336200015960201b60201c565b50620001527f65d7a28e3265b37a6474929f336521b332c1681b933f6cb9f3376673440d862a336200015960201b60201c565b5062000631565b60006200016d83836200025d60201b60201c565b620002525760016006600085815260200190815260200160002060000160008473ffffffffffffffffffffffffffffffffffffffff1673ffffffffffffffffffffffffffffffffffffffff16815260200190815260200160002060006101000a81548160ff021916908315150217905550620001ee620002c860201b60201c565b73ffffffffffffffffffffffffffffffffffffffff168273ffffffffffffffffffffffffffffffffffffffff16847f2f8788117e7eff1d82e926ec794901d17c78024a50270940304540a733656f0d60405160405180910390a46001905062000257565b600090505b92915050565b60006006600084815260200190815260200160002060000160008373ffffffffffffffffffffffffffffffffffffffff1673ffffffffffffffffffffffffffffffffffffffff16815260200190815260200160002060009054906101000a900460ff16905092915050565b600033905090565b600081519050919050565b7f4e487b7100000000000000000000000000000000000000000000000000000000600052604160045260246000fd5b7f4e487b7100000000000000000000000000000000000000000000000000000000600052602260045260246000fd5b600060028204905060018216806200035257607f821691505b6020821081036200036857620003676200030a565b5b50919050565b60008190508160005260206000209050919050565b60006020601f8301049050919050565b600082821b905092915050565b600060088302620003d27fffffffffffffffffffffffffffffffffffffffffffffffffffffffffffffffff8262000393565b620003de868362000393565b95508019841693508086168417925050509392505050565b6000819050919050565b6000819050919050565b60006200042b620004256200041f84620003f6565b62000400565b620003f6565b9050919050565b6000819050919050565b62000447836200040a565b6200045f620004568262000432565b848454620003a0565b825550505050565b600090565b6200047662000467565b620004838184846200043c565b505050565b5b81811015620004ab576200049f6000826200046c565b60018101905062000489565b5050565b601f821115620004fa57620004c4816200036e565b620004cf8462000383565b81016020851015620004df578190505b620004f7620004ee8562000383565b83018262000488565b50505b505050565b600082821c905092915050565b60006200051f60001984600802620004ff565b1980831691505092915050565b60006200053a83836200050c565b9150826002028217905092915050565b6200055582620002d0565b67ffffffffffffffff811115620005715762000570620002db565b5b6200057d825462000339565b6200058a828285620004af565b600060209050601f831160018114620005c25760008415620005ad578287015190505b620005b985826200052c565b86555062000629565b601f198416620005d2866200036e565b60005b82811015620005fc57848901518255600182019150602085019450602081019050620005d5565b868310156200061c578489015162000618601f8916826200050c565b8355505b6001600288020188555050505b505050505050565b61207c80620006416000396000f3fe608060405234801561001057600080fd5b50600436106101a95760003560e01c806370a08231116100f9578063d539139311610097578063dd62ed3e11610071578063dd62ed3e146104be578063e63ab1e9146104ee578063eb91e6511461050c578063f9f92be414610528576101a9565b8063d539139314610454578063d547741f14610472578063dbac26e91461048e576101a9565b806395d89b41116100d357806395d89b41146103cc5780639dc29fac146103ea578063a217fddf14610406578063a9059cbb14610424576101a9565b806370a08231146103625780638456cb591461039257806391d148541461039c576101a9565b8063282c51f31161016657806336568abe1161014057806336568abe146103025780633f4ba83a1461031e57806340c10f19146103285780635c975abb14610344576101a9565b8063282c51f3146102aa5780632f2ff15d146102c8578063313ce567146102e4576101a9565b806301ffc9a7146101ae57806306fdde03146101de578063095ea7b3146101fc57806318160ddd1461022c57806323b872dd1461024a578063248a9ca31461027a575b600080fd5b6101c860048036038101906101c391906119de565b610544565b6040516101d59190611a26565b60405180910390f35b6101e66105be565b6040516101f39190611ad1565b60405180910390f35b61021660048036038101906102119190611b87565b610650565b6040516102239190611a26565b60405180910390f35b610234610673565b6040516102419190611bd6565b60405180910390f35b610264600480360381019061025f9190611bf1565b61067d565b6040516102719190611a26565b60405180910390f35b610294600480360381019061028f9190611c7a565b6106ac565b6040516102a19190611cb6565b60405180910390f35b6102b26106cc565b6040516102bf9190611cb6565b60405180910390f35b6102e260048036038101906102dd9190611cd1565b6106f0565b005b6102ec610712565b6040516102f99190611d2d565b60405180910390f35b61031c60048036038101906103179190611cd1565b61071b565b005b610326610796565b005b610342600480360381019061033d9190611b87565b6107cb565b005b61034c610852565b6040516103599190611a26565b60405180910390f35b61037c60048036038101906103779190611d48565b610869565b6040516103899190611bd6565b60405180910390f35b61039a6108b1565b005b6103b660048036038101906103b19190611cd1565b6108e6565b6040516103c39190611a26565b60405180910390f35b6103d4610951565b6040516103e19190611ad1565b60405180910390f35b61040460048036038101906103ff9190611b87565b6109e3565b005b61040e610a6a565b60405161041b9190611cb6565b60405180910390f35b61043e60048036038101906104399190611b87565b610a71565b60405161044b9190611a26565b60405180910390f35b61045c610a94565b6040516104699190611cb6565b60405180910390f35b61048c60048036038101906104879190611cd1565b610ab8565b005b6104a860048036038101906104a39190611d48565b610ada565b6040516104b59190611a26565b60405180910390f35b6104d860048036038101906104d39190611d75565b610afa565b6040516104e59190611bd6565b60405180910390f35b6104f6610b81565b6040516105039190611cb6565b60405180910390f35b61052660048036038101906105219190611d48565b610ba5565b005b610542600480360381019061053d9190611d48565b610c51565b005b60007f7965db0b000000000000000000000000000000000000000000000000000000007bffffffffffffffffffffffffffffffffffffffffffffffffffffffff1916827bffffffffffffffffffffffffffffffffffffffffffffffffffffffff191614806105b757506105b682610d6c565b5b9050919050565b6060600380546105cd90611de4565b80601f01602080910402602001604051908101604052809291908181526020018280546105f990611de4565b80156106465780601f1061061b57610100808354040283529160200191610646565b820191906000526020600020905b81548152906001019060200180831161062957829003601f168201915b5050505050905090565b60008061065b610dd6565b9050610668818585610dde565b600191505092915050565b6000600254905090565b600080610688610dd6565b9050610695858285610df0565b6106a0858585610e85565b60019150509392505050565b600060066000838152602001908152602001600020600101549050919050565b7f3c11d16cbaffd01df69ce1c404f6340ee057498f5f00246190ea54220576a84881565b6106f9826106ac565b61070281610f79565b61070c8383610f8d565b50505050565b60006012905090565b610723610dd6565b73ffffffffffffffffffffffffffffffffffffffff168173ffffffffffffffffffffffffffffffffffffffff1614610787576040517f6697b23200000000000000000000000000000000000000000000000000000000815260040160405180910390fd5b610791828261107f565b505050565b7f65d7a28e3265b37a6474929f336521b332c1681b933f6cb9f3376673440d862a6107c081610f79565b6107c8611172565b50565b7f9f2df0fed2c77648de5860a4cc508cd0818c85b8b8a1ab4ceeef8d981c8956a66107f581610f79565b6107ff83836111d5565b8273ffffffffffffffffffffffffffffffffffffffff167f0f6798a560793a54c3bcfe86a93cde1e73087d944c0ea20544137d4121396885836040516108459190611bd6565b60405180910390a2505050565b6000600560009054906101000a900460ff16905090565b60008060008373ffffffffffffffffffffffffffffffffffffffff1673ffffffffffffffffffffffffffffffffffffffff168152602001908152602001600020549050919050565b7f65d7a28e3265b37a6474929f336521b332c1681b933f6cb9f3376673440d862a6108db81610f79565b6108e3611257565b50565b60006006600084815260200190815260200160002060000160008373ffffffffffffffffffffffffffffffffffffffff1673ffffffffffffffffffffffffffffffffffffffff16815260200190815260200160002060009054906101000a900460ff16905092915050565b60606004805461096090611de4565b80601f016020809104026020016040519081016040528092919081815260200182805461098c90611de4565b80156109d95780601f106109ae576101008083540402835291602001916109d9565b820191906000526020600020905b8154815290600101906020018083116109bc57829003601f168201915b5050505050905090565b7f3c11d16cbaffd01df69ce1c404f6340ee057498f5f00246190ea54220576a848610a0d81610f79565b610a1783836112ba565b8273ffffffffffffffffffffffffffffffffffffffff167fcc16f5dbb4873280815c1ee09dbd06736cffcc184412cf7a71a0fdb75d397ca583604051610a5d9190611bd6565b60405180910390a2505050565b6000801b81565b600080610a7c610dd6565b9050610a89818585610e85565b600191505092915050565b7f9f2df0fed2c77648de5860a4cc508cd0818c85b8b8a1ab4ceeef8d981c8956a681565b610ac1826106ac565b610aca81610f79565b610ad4838361107f565b50505050565b60076020528060005260406000206000915054906101000a900460ff1681565b6000600160008473ffffffffffffffffffffffffffffffffffffffff1673ffffffffffffffffffffffffffffffffffffffff16815260200190815260200160002060008373ffffffffffffffffffffffffffffffffffffffff1673ffffffffffffffffffffffffffffffffffffffff16815260200190815260200160002054905092915050565b7f65d7a28e3265b37a6474929f336521b332c1681b933f6cb9f3376673440d862a81565b6000801b610bb281610f79565b6000600760008473ffffffffffffffffffffffffffffffffffffffff1673ffffffffffffffffffffffffffffffffffffffff16815260200190815260200160002060006101000a81548160ff0219169083151502179055508173ffffffffffffffffffffffffffffffffffffffff167f117e3210bb9aa7d9baff172026820255c6f6c30ba8999d1c2fd88e2848137c4e60405160405180910390a25050565b6000801b610c5e81610f79565b600073ffffffffffffffffffffffffffffffffffffffff168273ffffffffffffffffffffffffffffffffffffffff1603610ccd576040517f08c379a0000000000000000000000000000000000000000000000000000000008152600401610cc490611e61565b60405180910390fd5b6001600760008473ffffffffffffffffffffffffffffffffffffffff1673ffffffffffffffffffffffffffffffffffffffff16815260200190815260200160002060006101000a81548160ff0219169083151502179055508173ffffffffffffffffffffffffffffffffffffffff167fffa4e6181777692565cf28528fc88fd1516ea86b56da075235fa575af6a4b85560405160405180910390a25050565b60007f01ffc9a7000000000000000000000000000000000000000000000000000000007bffffffffffffffffffffffffffffffffffffffffffffffffffffffff1916827bffffffffffffffffffffffffffffffffffffffffffffffffffffffff1916149050919050565b600033905090565b610deb838383600161133c565b505050565b6000610dfc8484610afa565b90507fffffffffffffffffffffffffffffffffffffffffffffffffffffffffffffffff811015610e7f5781811015610e6f578281836040517ffb8f41b2000000000000000000000000000000000000000000000000000000008152600401610e6693929190611e90565b60405180910390fd5b610e7e8484848403600061133c565b5b50505050565b600073ffffffffffffffffffffffffffffffffffffffff168373ffffffffffffffffffffffffffffffffffffffff1603610ef75760006040517f96c6fd1e000000000000000000000000000000000000000000000000000000008152600401610eee9190611ec7565b60405180910390fd5b600073ffffffffffffffffffffffffffffffffffffffff168273ffffffffffffffffffffffffffffffffffffffff1603610f695760006040517fec442f05000000000000000000000000000000000000000000000000000000008152600401610f609190611ec7565b60405180910390fd5b610f74838383611513565b505050565b610f8a81610f85610dd6565b611672565b50565b6000610f9983836108e6565b6110745760016006600085815260200190815260200160002060000160008473ffffffffffffffffffffffffffffffffffffffff1673ffffffffffffffffffffffffffffffffffffffff16815260200190815260200160002060006101000a81548160ff021916908315150217905550611011610dd6565b73ffffffffffffffffffffffffffffffffffffffff168273ffffffffffffffffffffffffffffffffffffffff16847f2f8788117e7eff1d82e926ec794901d17c78024a50270940304540a733656f0d60405160405180910390a460019050611079565b600090505b92915050565b600061108b83836108e6565b156111675760006006600085815260200190815260200160002060000160008473ffffffffffffffffffffffffffffffffffffffff1673ffffffffffffffffffffffffffffffffffffffff16815260200190815260200160002060006101000a81548160ff021916908315150217905550611104610dd6565b73ffffffffffffffffffffffffffffffffffffffff168273ffffffffffffffffffffffffffffffffffffffff16847ff6391f5c32d9c69d2a47ea670b442974b53935d1edc7fd64eb21e047a839171b60405160405180910390a46001905061116c565b600090505b92915050565b61117a6116c3565b6000600560006101000a81548160ff0219169083151502179055507f5db9ee0a495bf2e6ff9c91a7834c1ba4fdd244a5e8aa4e537bd38aeae4b073aa6111be610dd6565b6040516111cb9190611ec7565b60405180910390a1565b600073ffffffffffffffffffffffffffffffffffffffff168273ffffffffffffffffffffffffffffffffffffffff16036112475760006040517fec442f0500000000000000000000000000000000000000000000000000000000815260040161123e9190611ec7565b60405180910390fd5b61125360008383611513565b5050565b61125f611703565b6001600560006101000a81548160ff0219169083151502179055507f62e78cea01bee320cd4e420270b5ea74000d11b0c9f74754ebdbfc544b05a2586112a3610dd6565b6040516112b09190611ec7565b60405180910390a1565b600073ffffffffffffffffffffffffffffffffffffffff168273ffffffffffffffffffffffffffffffffffffffff160361132c5760006040517f96c6fd1e0000000000000000000000000000000000000000000000000000000081526004016113239190611ec7565b60405180910390fd5b61133882600083611513565b5050565b600073ffffffffffffffffffffffffffffffffffffffff168473ffffffffffffffffffffffffffffffffffffffff16036113ae5760006040517fe602df050000000000000000000000000000000000000000000000000000000081526004016113a59190611ec7565b60405180910390fd5b600073ffffffffffffffffffffffffffffffffffffffff168373ffffffffffffffffffffffffffffffffffffffff16036114205760006040517f94280d620000000000000000000000000000000000000000000000000000000081526004016114179190611ec7565b60405180910390fd5b81600160008673ffffffffffffffffffffffffffffffffffffffff1673ffffffffffffffffffffffffffffffffffffffff16815260200190815260200160002060008573ffffffffffffffffffffffffffffffffffffffff1673ffffffffffffffffffffffffffffffffffffffff16815260200190815260200160002081905550801561150d578273ffffffffffffffffffffffffffffffffffffffff168473ffffffffffffffffffffffffffffffffffffffff167f8c5be1e5ebec7d5bd14f71427d1e84f3dd0314c0f7b2291e5b200ac8c7c3b925846040516115049190611bd6565b60405180910390a35b50505050565b600073ffffffffffffffffffffffffffffffffffffffff168273ffffffffffffffffffffffffffffffffffffffff16146115d557600760008473ffffffffffffffffffffffffffffffffffffffff1673ffffffffffffffffffffffffffffffffffffffff16815260200190815260200160002060009054906101000a900460ff16156115d4576040517f08c379a00000000000000000000000000000000000000000000000000000000081526004016115cb90611f2e565b60405180910390fd5b5b600760008373ffffffffffffffffffffffffffffffffffffffff1673ffffffffffffffffffffffffffffffffffffffff16815260200190815260200160002060009054906101000a900460ff1615611662576040517f08c379a000000000000000000000000000000000000000000000000000000000815260040161165990611f9a565b60405180910390fd5b61166d838383611744565b505050565b61167c82826108e6565b6116bf5780826040517fe2517d3f0000000000000000000000000000000000000000000000000000000081526004016116b6929190611fba565b60405180910390fd5b5050565b6116cb610852565b611701576040517f8dfc202b00000000000000000000000000000000000000000000000000000000815260040160405180910390fd5b565b61170b610852565b15611742576040517fd93c066500000000000000000000000000000000000000000000000000000000815260040160405180910390fd5b565b61174c611703565b61175783838361175c565b505050565b600073ffffffffffffffffffffffffffffffffffffffff168373ffffffffffffffffffffffffffffffffffffffff16036117ae5780600260008282546117a29190612012565b92505081905550611881565b60008060008573ffffffffffffffffffffffffffffffffffffffff1673ffffffffffffffffffffffffffffffffffffffff1681526020019081526020016000205490508181101561183a578381836040517fe450d38c00000000000000000000000000000000000000000000000000000000815260040161183193929190611e90565b60405180910390fd5b8181036000808673ffffffffffffffffffffffffffffffffffffffff1673ffffffffffffffffffffffffffffffffffffffff16815260200190815260200160002081905550505b600073ffffffffffffffffffffffffffffffffffffffff168273ffffffffffffffffffffffffffffffffffffffff16036118ca5780600260008282540392505081905550611917565b806000808473ffffffffffffffffffffffffffffffffffffffff1673ffffffffffffffffffffffffffffffffffffffff168152602001908152602001600020600082825401925050819055505b8173ffffffffffffffffffffffffffffffffffffffff168373ffffffffffffffffffffffffffffffffffffffff167fddf252ad1be2c89b69c2b068fc378daa952ba7f163c4a11628f55a4df523b3ef836040516119749190611bd6565b60405180910390a3505050565b600080fd5b60007fffffffff0000000000000000000000000000000000000000000000000000000082169050919050565b6119bb81611986565b81146119c657600080fd5b50565b6000813590506119d8816119b2565b92915050565b6000602082840312156119f4576119f3611981565b5b6000611a02848285016119c9565b91505092915050565b60008115159050919050565b611a2081611a0b565b82525050565b6000602082019050611a3b6000830184611a17565b92915050565b600081519050919050565b600082825260208201905092915050565b60005b83811015611a7b578082015181840152602081019050611a60565b60008484015250505050565b6000601f19601f8301169050919050565b6000611aa382611a41565b611aad8185611a4c565b9350611abd818560208601611a5d565b611ac681611a87565b840191505092915050565b60006020820190508181036000830152611aeb8184611a98565b905092915050565b600073ffffffffffffffffffffffffffffffffffffffff82169050919050565b6000611b1e82611af3565b9050919050565b611b2e81611b13565b8114611b3957600080fd5b50565b600081359050611b4b81611b25565b92915050565b6000819050919050565b611b6481611b51565b8114611b6f57600080fd5b50565b600081359050611b8181611b5b565b92915050565b60008060408385031215611b9e57611b9d611981565b5b6000611bac85828601611b3c565b9250506020611bbd85828601611b72565b9150509250929050565b611bd081611b51565b82525050565b6000602082019050611beb6000830184611bc7565b92915050565b600080600060608486031215611c0a57611c09611981565b5b6000611c1886828701611b3c565b9350506020611c2986828701611b3c565b9250506040611c3a86828701611b72565b9150509250925092565b6000819050919050565b611c5781611c44565b8114611c6257600080fd5b50565b600081359050611c7481611c4e565b92915050565b600060208284031215611c9057611c8f611981565b5b6000611c9e84828501611c65565b91505092915050565b611cb081611c44565b82525050565b6000602082019050611ccb6000830184611ca7565b92915050565b60008060408385031215611ce857611ce7611981565b5b6000611cf685828601611c65565b9250506020611d0785828601611b3c565b9150509250929050565b600060ff82169050919050565b611d2781611d11565b82525050565b6000602082019050611d426000830184611d1e565b92915050565b600060208284031215611d5e57611d5d611981565b5b6000611d6c84828501611b3c565b91505092915050565b60008060408385031215611d8c57611d8b611981565b5b6000611d9a85828601611b3c565b9250506020611dab85828601611b3c565b9150509250929050565b7f4e487b7100000000000000000000000000000000000000000000000000000000600052602260045260246000fd5b60006002820490506001821680611dfc57607f821691505b602082108103611e0f57611e0e611db5565b5b50919050565b7f43616e6e6f7420626c61636b6c697374207a65726f2061646472657373000000600082015250565b6000611e4b601d83611a4c565b9150611e5682611e15565b602082019050919050565b60006020820190508181036000830152611e7a81611e3e565b9050919050565b611e8a81611b13565b82525050565b6000606082019050611ea56000830186611e81565b611eb26020830185611bc7565b611ebf6040830184611bc7565b949350505050565b6000602082019050611edc6000830184611e81565b92915050565b7f53656e64657220626c61636b6c69737465640000000000000000000000000000600082015250565b6000611f18601283611a4c565b9150611f2382611ee2565b602082019050919050565b60006020820190508181036000830152611f4781611f0b565b9050919050565b7f526563697069656e7420626c61636b6c69737465640000000000000000000000600082015250565b6000611f84601583611a4c565b9150611f8f82611f4e565b602082019050919050565b60006020820190508181036000830152611fb381611f77565b9050919050565b6000604082019050611fcf6000830185611e81565b611fdc6020830184611ca7565b9392505050565b7f4e487b7100000000000000000000000000000000000000000000000000000000600052601160045260246000fd5b600061201d82611b51565b915061202883611b51565b92508282019050808211156120405761203f611fe3565b5b9291505056fea2646970667358221220e5dbb08c99dc0d0773c9c8c168772eea530abfd528174bdd00d137549f55ef0264736f6c63430008140033",
  "linkReferences": {},
  "deployedLinkReferences": {}
}