{
  "_format": "hh-sol-artifact-1",
  "contractName": "VndOracle",
  "sourceName": "contracts/VndOracle.sol",
  "abi": [
    {
      "inputs": [
        {
          "internalType": "uint256",
          "name": "initialRate",
          "type": "uint256"
        }
      ],
      "stateMutability": "nonpayable",
      "type": "constructor"
    },
    {
      "inputs": [
        {
          "internalType": "address",
          "name": "owner",
          "type": "address"
        }
      ],
      "name": "OwnableInvalidOwner",
      "type": "error"
    },
    {
      "inputs": [
        {
          "internalType": "address",
          "name": "account",
          "type": "address"
        }
      ],
      "name": "OwnableUnauthorizedAccount",
      "type": "error"
    },
    {
      "anonymous": false,
      "inputs": [
        {
          "indexed": true,
          "internalType": "address",
          "name": "previousOwner",
          "type": "address"
        },
        {
          "indexed": true,
          "internalType": "address",
          "name": "newOwner",
          "type": "address"
        }
      ],
      "name": "OwnershipTransferred",
      "type": "event"
    },
    {
      "anonymous": false,
      "inputs": [
        {
          "indexed": false,
          "internalType": "uint256",
          "name": "newRate",
          "type": "uint256"
        },
        {
          "indexed": false,
          "internalType": "uint256",
          "name": "timestamp",
          "type": "uint256"
        }
      ],
      "name": "RateUpdated",
      "type": "event"
    },
    {
      "inputs": [],
      "name": "lastUpdated",
      "outputs": [
        {
          "internalType": "uint256",
          "name": "",
          "type": "uint256"
        }
      ],
      "stateMutability": "view",
      "type": "function"
    },
    {
      "inputs": [],
      "name": "owner",
      "outputs": [
        {
          "internalType": "address",
          "name": "",
          "type": "address"
        }
      ],
      "stateMutability": "view",
      "type": "function"
    },
    {
      "inputs": [],
      "name": "renounceOwnership",
      "outputs": [],
      "stateMutability": "nonpayable",
      "type": "function"
    },
    {
      "inputs": [
        {
          "internalType": "address",
          "name": "newOwner",
          "type": "address"
        }
      ],
      "name": "transferOwnership",
      "outputs": [],
      "stateMutability": "nonpayable",
      "type": "function"
    },
    {
      "inputs": [
        {
          "internalType": "uint256",
          "name": "newRate",
          "type": "uint256"
        }
      ],
      "name": "updateRate",
      "outputs": [],
      "stateMutability": "nonpayable",
      "type": "function"
    },
    {
      "inputs": [
        {
          "internalType": "uint256",
          "name": "usdAmount",
          "type": "uint256"
        }
      ],
      "name": "usdToVnd",
      "outputs": [
        {
          "internalType": "uint256",
          "name": "",
          "type": "uint256"
        }
      ],
      "stateMutability": "view",
      "type": "function"
    },
    {
      "inputs": [],
      "name": "vndPerUsd",
      "outputs": [
        {
          "internalType": "uint256",
          "name": "",
          "type": "uint256"
        }
      ],
      "stateMutability": "view",
      "type": "function"
    },
    {
      "inputs": [
        {
          "internalType": "uint256",
          "name": "vndAmount",
          "type": "uint256"
        }
      ],
      "name": "vndToUsd",
      "outputs": [
        {
          "internalType": "uint256",
          "name": "",
          "type": "uint256"
        }
      ],
      "stateMutability": "view",
      "type": "function"
    }
  ],
  "bytecode": "0x608060405234801561001057600080fd5b506040516109e83803806109e8833981810160405281019061003291906101c8565b33600073ffffffffffffffffffffffffffffffffffffffff168173ffffffffffffffffffffffffffffffffffffffff16036100a55760006040517f1e4fbdf700000000000000000000000000000000000000000000000000000000815260040161009c9190610236565b60405180910390fd5b6100b4816100c960201b60201c565b50806001819055504260028190555050610251565b60008060009054906101000a900473ffffffffffffffffffffffffffffffffffffffff169050816000806101000a81548173ffffffffffffffffffffffffffffffffffffffff021916908373ffffffffffffffffffffffffffffffffffffffff1602179055508173ffffffffffffffffffffffffffffffffffffffff168173ffffffffffffffffffffffffffffffffffffffff167f8be0079c531659141344cd1fd0a4f28419497f9722a3daafe3b4186f6b6457e060405160405180910390a35050565b600080fd5b6000819050919050565b6101a581610192565b81146101b057600080fd5b50565b6000815190506101c28161019c565b92915050565b6000602082840312156101de576101dd61018d565b5b60006101ec848285016101b3565b91505092915050565b600073ffffffffffffffffffffffffffffffffffffffff82169050919050565b6000610220826101f5565b9050919050565b61023081610215565b82525050565b600060208201905061024b6000830184610227565b92915050565b610788806102606000396000f3fe608060405234801561001057600080fd5b50600436106100885760003560e01c8063715018a61161005b578063715018a6146101275780638da5cb5b14610131578063d0b06f5d1461014f578063f2fde38b1461016d57610088565b806301d058771461008d5780630da09d32146100ab578063692bb7e3146100db57806369ea17711461010b575b600080fd5b610095610189565b6040516100a291906104ad565b60405180910390f35b6100c560048036038101906100c091906104f9565b61018f565b6040516100d291906104ad565b60405180910390f35b6100f560048036038101906100f091906104f9565b6101b9565b60405161010291906104ad565b60405180910390f35b610125600480360381019061012091906104f9565b6101e3565b005b61012f610278565b005b61013961028c565b6040516101469190610567565b60405180910390f35b6101576102b5565b60405161016491906104ad565b60405180910390f35b610187600480360381019061018291906105ae565b6102bb565b005b60015481565b6000600154670de0b6b3a7640000836101a8919061060a565b6101b2919061067b565b9050919050565b6000670de0b6b3a7640000600154836101d2919061060a565b6101dc919061067b565b9050919050565b6101eb610341565b6000811161022e576040517f08c379a000000000000000000000000000000000000000000000000000000000815260040161022590610709565b60405180910390fd5b80600181905550426002819055507fb38780ddde1f073d91c150de2696f3f7085883648ba21cc5ef01029cb21d1916814260405161026d929190610729565b60405180910390a150565b610280610341565b61028a60006103c8565b565b60008060009054906101000a900473ffffffffffffffffffffffffffffffffffffffff16905090565b60025481565b6102c3610341565b600073ffffffffffffffffffffffffffffffffffffffff168173ffffffffffffffffffffffffffffffffffffffff16036103355760006040517f1e4fbdf700000000000000000000000000000000000000000000000000000000815260040161032c9190610567565b60405180910390fd5b61033e816103c8565b50565b61034961048c565b73ffffffffffffffffffffffffffffffffffffffff1661036761028c565b73ffffffffffffffffffffffffffffffffffffffff16146103c65761038a61048c565b6040517f118cdaa70000000000000000000000000000000000000000000000000000000081526004016103bd9190610567565b60405180910390fd5b565b60008060009054906101000a900473ffffffffffffffffffffffffffffffffffffffff169050816000806101000a81548173ffffffffffffffffffffffffffffffffffffffff021916908373ffffffffffffffffffffffffffffffffffffffff1602179055508173ffffffffffffffffffffffffffffffffffffffff168173ffffffffffffffffffffffffffffffffffffffff167f8be0079c531659141344cd1fd0a4f28419497f9722a3daafe3b4186f6b6457e060405160405180910390a35050565b600033905090565b6000819050919050565b6104a781610494565b82525050565b60006020820190506104c2600083018461049e565b92915050565b600080fd5b6104d681610494565b81146104e157600080fd5b50565b6000813590506104f3816104cd565b92915050565b60006020828403121561050f5761050e6104c8565b5b600061051d848285016104e4565b91505092915050565b600073ffffffffffffffffffffffffffffffffffffffff82169050919050565b600061055182610526565b9050919050565b61056181610546565b82525050565b600060208201905061057c6000830184610558565b92915050565b61058b81610546565b811461059657600080fd5b50565b6000813590506105a881610582565b92915050565b6000602082840312156105c4576105c36104c8565b5b60006105d284828501610599565b91505092915050565b7f4e487b7100000000000000000000000000000000000000000000000000000000600052601160045260246000fd5b600061061582610494565b915061062083610494565b925082820261062e81610494565b91508282048414831517610645576106446105db565b5b5092915050565b7f4e487b7100000000000000000000000000000000000000000000000000000000600052601260045260246000fd5b600061068682610494565b915061069183610494565b9250826106a1576106a061064c565b5b828204905092915050565b600082825260208201905092915050565b7f526174652063616e6e6f74206265207a65726f00000000000000000000000000600082015250565b60006106f36013836106ac565b91506106fe826106bd565b602082019050919050565b60006020820190508181036000830152610722816106e6565b9050919050565b600060408201905061073e600083018561049e565b61074b602083018461049e565b939250505056fea26469706673582212201399c84f58f13ddc6cafec390ce1cca26332bb81471019106729caf0fdb349e964736f6c63430008140033",
  "linkReferences": {},
  "deployedLinkReferences": {}
}