{
  "_format": "hh-sol-artifact-1",
  "contractName": "VndOracle",
  "sourceName": "contracts/VndOracle.sol",
  "abi": [
    {
      "inputs": [
        {
          "internalType": "uint256",
          "name": "initialRate",
          "type": "uint256"
        }
      ],
      "stateMutability": "nonpayable",
      "type": "constructor"
    },
    {
      "inputs": [
        {
          "internalType": "address",
          "name": "owner",
          "type": "address"
        }
      ],
      "name": "OwnableInvalidOwner",
      "type": "error"
    },
    {
      "inputs": [
        {
          "internalType": "address",
          "name": "account",
          "type": "address"
        }
      ],
      "name": "OwnableUnauthorizedAccount",
      "type": "error"
    },
    {
      "anonymous": false,
      "inputs": [
        {
          "indexed": true,
          "internalType": "address",
          "name": "previousOwner",
          "type": "address"
        },
        {
          "indexed": true,
          "internalType": "address",
          "name": "newOwner",
          "type": "address"
        }
      ],
      "name": "OwnershipTransferred",
      "type": "event"
    },
    {
      "anonymous": false,
      "inputs": [
        {
          "indexed": false,
          "internalType": "uint256",
          "name": "newRate",
          "type": "uint256"
        },
        {
          "indexed": false,
          "internalType": "uint256",
          "name": "timestamp",
          "type": "uint256"
        }
      ],
      "name": "RateUpdated",
      "type": "event"
    },
    {
      "inputs": [],
      "name": "lastUpdated",
      "outputs": [
        {
          "internalType": "uint256",
          "name": "",
          "type": "uint256"
        }
      ],
      "stateMutability": "view",
      "type": "function"
    },
    {
      "inputs": [],
      "name": "owner",
      "outputs": [
        {
          "internalType": "address",
          "name": "",
          "type": "address"
        }
      ],
      "stateMutability": "view",
      "type": "function"
    },
    {
      "inputs": [],
      "name": "renounceOwnership",
      "outputs": [],
      "stateMutability": "nonpayable",
      "type": "function"
    },
    {
      "inputs": [
        {
          "internalType": "address",
          "name": "newOwner",
          "type": "address"
        }
      ],
      "name": "transferOwnership",
      "outputs": [],
      "stateMutability": "nonpayable",
      "type": "function"
    },
    {
      "inputs": [
        {
          "internalType": "uint256",
          "name": "newRate",
          "type": "uint256"
        }
      ],
      "name": "updateRate",
      "outputs": [],
      "stateMutability": "nonpayable",
      "type": "function"
    },
    {
      "inputs": [
        {
          "internalType": "uint256",
          "name": "usdAmount",
          "type": "uint256"
        }
      ],
      "name": "usdToVnd",
      "outputs": [
        {
          "internalType": "uint256",
          "name": "",
          "type": "uint256"
        }
      ],
      "stateMutability": "view",
      "type": "function"
    },
    {
      "inputs": [],
      "name": "vndPerUsd",
      "outputs": [
        {
          "internalType": "uint256",
          "name": "",
          "type": "uint256"
        }
      ],
      "stateMutability": "view",
      "type": "function"
    },
    {
      "inputs": [
        {
          "internalType": "uint256",
          "name": "vndAmount",
          "type": "uint256"
        }
      ],
      "name": "vndToUsd",
      "outputs": [
        {
          "internalType": "uint256",
          "name": "",
          "type": "uint256"
        }
      ],
      "stateMutability": "view",
      "type": "function"
    }
  ],
  "bytecode": "0x608060405234801561001057600080fd5b50604051610928380380610928833981810160405281019061003291906101c8565b33600073ffffffffffffffffffffffffffffffffffffffff168173ffffffffffffffffffffffffffffffffffffffff16036100a55760006040517f1e4fbdf700000000000000000000000000000000000000000000000000000000815260040161009c9190610236565b60405180910390fd5b6100b4816100c960201b60201c565b50806001819055504260028190555050610251565b60008060009054906101000a900473ffffffffffffffffffffffffffffffffffffffff169050816000806101000a81548173ffffffffffffffffffffffffffffffffffffffff021916908373ffffffffffffffffffffffffffffffffffffffff1602179055508173ffffffffffffffffffffffffffffffffffffffff168173ffffffffffffffffffffffffffffffffffffffff167f8be0079c531659141344cd1fd0a4f28419497f9722a3daafe3b4186f6b6457e060405160405180910390a35050565b600080fd5b6000819050919050565b6101a581610192565b81146101b057600080fd5b50565b6000815190506101c28161019c565b92915050565b6000602082840312156101de576101dd61018d565b5b60006101ec848285016101b3565b91505092915050565b600073ffffffffffffffffffffffffffffffffffffffff82169050919050565b6000610220826101f5565b9050919050565b61023081610215565b82525050565b600060208201905061024b6000830184610227565b92915050565b6106c8806102606000396000f3fe608060405234801561001057600080fd5b50600436106100885760003560e01c8063715018a61161005b578063715018a6146101275780638da5cb5b14610131578063d0b06f5d1461014f578063f2fde38b1461016d57610088565b806301d058771461008d5780630da09d32146100ab578063692bb7e3146100db57806369ea17711461010b575b600080fd5b610095610189565b6040516100a2919061046a565b60405180910390f35b6100c560048036038101906100c091906104b6565b61018f565b6040516100d2919061046a565b60405180910390f35b6100f560048036038101906100f091906104b6565b6101b9565b604051610102919061046a565b60405180910390f35b610125600480360381019061012091906104b6565b6101e3565b005b61012f610235565b005b610139610249565b6040516101469190610524565b60405180910390f35b610157610272565b604051610164919061046a565b60405180910390f35b6101876004803603810190610182919061056b565b610278565b005b60015481565b6000600154670de0b6b3a7640000836101a891906105c7565b6101b29190610638565b9050919050565b6000670de0b6b3a7640000600154836101d291906105c7565b6101dc9190610638565b9050919050565b6101eb6102fe565b80600181905550426002819055507fb38780ddde1f073d91c150de2696f3f7085883648ba21cc5ef01029cb21d1916814260405161022a929190610669565b60405180910390a150565b61023d6102fe565b6102476000610385565b565b60008060009054906101000a900473ffffffffffffffffffffffffffffffffffffffff16905090565b60025481565b6102806102fe565b600073ffffffffffffffffffffffffffffffffffffffff168173ffffffffffffffffffffffffffffffffffffffff16036102f25760006040517f1e4fbdf70000000000000000000000000000000000000000000000000000000081526004016102e99190610524565b60405180910390fd5b6102fb81610385565b50565b610306610449565b73ffffffffffffffffffffffffffffffffffffffff16610324610249565b73ffffffffffffffffffffffffffffffffffffffff161461038357610347610449565b6040517f118cdaa700000000000000000000000000000000000000000000000000000000815260040161037a9190610524565b60405180910390fd5b565b60008060009054906101000a900473ffffffffffffffffffffffffffffffffffffffff169050816000806101000a81548173ffffffffffffffffffffffffffffffffffffffff021916908373ffffffffffffffffffffffffffffffffffffffff1602179055508173ffffffffffffffffffffffffffffffffffffffff168173ffffffffffffffffffffffffffffffffffffffff167f8be0079c531659141344cd1fd0a4f28419497f9722a3daafe3b4186f6b6457e060405160405180910390a35050565b600033905090565b6000819050919050565b61046481610451565b82525050565b600060208201905061047f600083018461045b565b92915050565b600080fd5b61049381610451565b811461049e57600080fd5b50565b6000813590506104b08161048a565b92915050565b6000602082840312156104cc576104cb610485565b5b60006104da848285016104a1565b91505092915050565b600073ffffffffffffffffffffffffffffffffffffffff82169050919050565b600061050e826104e3565b9050919050565b61051e81610503565b82525050565b60006020820190506105396000830184610515565b92915050565b61054881610503565b811461055357600080fd5b50565b6000813590506105658161053f565b92915050565b60006020828403121561058157610580610485565b5b600061058f84828501610556565b91505092915050565b7f4e487b7100000000000000000000000000000000000000000000000000000000600052601160045260246000fd5b60006105d282610451565b91506105dd83610451565b92508282026105eb81610451565b9150828204841483151761060257610601610598565b5b5092915050565b7f4e487b7100000000000000000000000000000000000000000000000000000000600052601260045260246000fd5b600061064382610451565b915061064e83610451565b92508261065e5761065d610609565b5b828204905092915050565b600060408201905061067e600083018561045b565b61068b602083018461045b565b939250505056fea26469706673582212205df8c7504dfa64639d0e6c89b95af9e4ac4912ebf8bdd31e186b6337ac9586ec64736f6c63430008140033",
  "linkReferences": {},
  "deployedLinkReferences": {}
}